:03000000020A3DB4
:0C0A3D00787FE4F6D8FD75812002095C8A
:1009350020535443204D4355205374617274212034
:100945000D0A005620004120000D0A0048414E2D99
:07095500424F4E440D0A0061
:090A49007BFF7A097935020910DE
:10080000E4F594F593F592F591F596F595F5B2F535
:10081000B1F5B4F5B3F5CAF5C9F5CCF5CBF5E2F50C
:10082000E1C294C295E5A2543FF5A27598DA75D756
:10083000E075D6FE758E14438E01D2ACD2AF5391C3
:10084000FE4392015391FD4392025391FB43920464
:100850005391F74392085391EF4392105391DF4322
:10086000922053C9DF43CA2053C9EF43CA1053B182
:10087000FB43B20453B2FB43B10453B2F743B10894
:1008800053B2BF43B14053B27F43B180D2CCD2CD3B
:03089000C2012280
:1009D000758E7F7589F0758CFC758A66C28DD2AF75
:0509E000D2A9D28C2217
:03000B0002097F68
:10097F00C0E0C0D0050EE50E7002050DB4F40DE514
:10098F000DB40108B2CD750D00750E00D0D0D0E0BA
:01099F003225
:1009E500EF4488F5BC00000000E5BC30E4FB53BCD7
:0409F500EFAFBD2281
:1008DC008F12E51275F064842430FF120A0DE512B4
:1008EC0075F00A8475F00A84E5F02430FF120A0DC5
:0E08FC00E51275F00A84E5F02430FF020A0DC3
:1009B9008F131208DC7F3A120A0DAF131209E512E0
:0709C90008DC7F20020A0D8B
:0E0A2F00759DFFE4F5BD75BC807F020209F9DC
:10089300120A2F12090A7F041209B9E4FF1209B9D7
:1008A3007BFF7A09794B1209107F011209B91209EA
:1008B3000A7F051209B97F021209B97BFF7A097908
:1008C3004B1209107F031209B97BFF7A09794E1283
:0908D30009107F0A1209F980BA2C
:10095C001209D0120800120A497F051209F9E5089C
:10096C00B448097BFF7A0979511209107F0A1209E0
:03097C00F980EB14
:03002300020A1FAF
:100A1F00309805C298859908309904C299C201325D
:100A0D002001FDEF30D004D29B8002C29BD201F5B4
:020A1D0099221C
:06090A007BFF7A09794829
:100910008B0F8A108911AB0FAA10A9111209A060C0
:10092000130511E5117002051014F91209A0FF1248
:050930000A0D80E22227
:1009F900AE071FEE600DE4FCFD0DED70010C4C60BF
:030A0900EF80F685
:010A0C0022C7
:1009A000BB010689828A83E0225002E722BBFE0255
:0909B000E32289828A83E4932288
:00000001FF
