:03000000021130BA
:0C113000787FE4F6D8FD75812D020800E0
:1010650048414E424F4E4420446576696174696F2C
:101075006E20636F7272656374696F6E2066656555
:1010850064696E67206D616368696E6520563A31E3
:061095002E30200D0A00C0
:10109B00BF0107D294C295C2CC22BF0204C2948076
:1010AB000FBF0307C294C295D2CC22BF0406D294C1
:0510BB00D295C2CC2219
:09113C007BFF7A1079650210C0F6
:100F5C00E4F594F593F592F591F596F595F5B2F5D2
:100F6C00B1F5B4F5B3F5CAF5C9F5CCF5CBF5E2F5A9
:100F7C00E1E5A2543FF5A27598DA75D7E075D6FE77
:100F8C00758E14438E01D2ACD2AF5391FE439201B5
:100F9C005391FD4392025391FB4392045391F743B7
:100FAC0092085391EF4392105391DF439220539543
:100FBC00BF43964053957F4396805395DF439620CD
:100FCC0053C9EF43CA1053C9DF43CA205396EF43AA
:100FDC0095105396F743950853B2F743B10853B2A3
:100FEC00EF43B11053B2DF43B12053B2BF43B14012
:100FFC005396FB4395045396FD4395025396FE433B
:10100C00950153B27F43B180D2A5D2A6D2A7D2907C
:05101C00D291C2012287
:1010E500758E7F7589F0758CFC758A66C28DD2AF59
:0510F500D2A9D28C22FB
:03000B00020E5989
:100E5900C0E0C0F0C083C082C0D075D000C000C05F
:100E690001C002C003C004C005C006C0070516E5DD
:100E79001670020515AE15FF7C017DF4120D36EDD5
:100E89004C7002B2A530B50630B30320A204C2915A
:100E99008002D291E509B40124E512250BF50BE492
:100EA900350AF50AAF0BAB07FA3395E0F9F87F90ED
:100EB9007ED07D037C001210218E0C8F0D30A40B87
:100EC90030A205751401800375140030B62430A2D0
:100ED9000CE50E7004C2A68006C2A78002D2A63015
:100EE900A10CE50E7004C2A7801FC2A6801BD2A761
:100EF900801730A110E50E7006D2A6C2A7800AC2DB
:100F0900A6D2A78004D2A6D2A730B41B30A206C2AB
:100F1900907F028020E50E7007750E017F03801512
:100F2900750E007F04800ED29030B50320B3047F84
:100F39000180027F0312109BD007D006D005D00490
:100F4900D003D002D001D000D0D0D082D083D0F04D
:030F5900D0E032B3
:10080000E4F50EF5091210E5120F5C12113CD2CD81
:100810007F011210FAC2CD7F011210FAD2CD7F01F2
:100820001210FAC2CD7F051210FAE4F514752703F1
:100830007528E875291B752A5820A203020BCFE5FD
:100840001464016003020BCF20B603020A6620A4E1
:10085000030209B630A303020900D293F525F52659
:100860000526E526700205256432452570F27509D6
:100870000185270A85280BAE0AAF0BAB07AA06EA4B
:100880003395E0F9F87F907ED07D037C0012102133
:100890008E0C8F0D75122830B59F30B39C20A39914
:1008A00030A49630A293C292E4F521F522C3E5224A
:1008B000950DE50C6480F8E521648098500A0522C6
:1008C000E52270E9052180E5D292E4F523F524C301
:1008D000E524950DE50C6480F8E523648098500AC2
:1008E0000524E52470E9052380E5C3E50B952AE599
:1008F000296480F8E50A648098409CE4F5098097B3
:10090000C293E4F525F5260526E526700205256443
:1009100032452570F275090185270A85280BAE0A34
:10092000AF0BAB07AA06EA3395E0F9F87F907ED0CB
:100930007D037C001210218E0C8F0D75122820B5BE
:100940000302083920B30302083920A3030208393F
:1009500020A40302083920A203020839C292E4F558
:1009600021F522C3E522950DE50C6480F8E52164AC
:100970008098500A0522E52270E9052180E5D2928F
:10098000E4F523F524C3E524950DE50C6480F8E532
:1009900023648098500A0524E52470E9052380E546
:1009A000C3E50B952AE5296480F8E50A6480984040
:1009B0008DE4F5098088C293E4F525F5260526E542
:1009C00026700205256432452570F27509018527D8
:1009D0000A85280BAE0AAF0BAB07AA06EA3395E0EF
:1009E000F9F87F907ED07D037C001210218E0C8F51
:1009F0000D75122820B50302083920B30302083907
:100A000030A40302083920A203020839C292E4F597
:100A100021F522C3E522950DE50C6480F8E52164FB
:100A20008098500A0522E52270E9052180E5D292DE
:100A3000E4F523F524C3E524950DE50C6480F8E581
:100A400023648098500A0524E52470E9052380E595
:100A5000C3E50B952AE5296480F8E50A648098408F
:100A600093E4F509808E30A403020B13C293E4F5DE
:100A700025F5260526E526700205256432452570F4
:100A8000F275090185270A85280BAE0AAF0BAB0763
:100A9000AA06EA3395E0F9F87F907ED07D037C00CA
:100AA0001210218E0C8F0D75122830B56630B3638D
:100AB00030A36020A45D30A25AC292E4F521F52251
:100AC000C3E522950DE50C6480F8E521648098501B
:100AD0000A0522E52270E9052180E5D292E4F5239A
:100AE000F524C3E524950DE50C6480F8E5236480C6
:100AF00098500A0524E52470E9052380E5C3E50B39
:100B0000952AE5296480F8E50A648098409CE4F51C
:100B100009809730A303020839D293E4F525F5261E
:100B20000526E526700205256432452570F2750913
:100B30000185270A85280BAE0AAF0BAB07AA06EA88
:100B40003395E0F9F87F907ED07D037C0012102170
:100B50008E0C8F0D75122820B50302083920B303BF
:100B600002083930A30302083920A40302083920FF
:100B7000A203020839C292E4F521F522C3E52295C9
:100B80000DE50C6480F8E521648098500A0522E5A3
:100B90002270E9052180E5D292E4F523F524C3E52E
:100BA00024950DE50C6480F8E523648098500A05CF
:100BB00024E52470E9052380E5C3E50B952AE529A2
:100BC0006480F8E50A648098408DE4F50980882007
:100BD000B703020C73C293E4F525F5260526E52636
:100BE000700205256432452570F275090185270AD2
:100BF00085280BAE0AAF0BAB07AA06EA3395E0F9DE
:100C0000F87F907ED07D037C001210218E0C8F0D1A
:100C100075121430B55D30B75AC292E4F521F52251
:100C2000C3E522950DE50C6480F8E52164809850B9
:100C30000A0522E52270E9052180E5D292E4F52338
:100C4000F524C3E524950DE50C6480F8E523648064
:100C500098500A0524E52470E9052380E5C3E50BD7
:100C6000952AE5296480F8E50A64809840A5E4F5B2
:100C70000980A020A003020D17D293E4F525F526E4
:100C80000526E526700205256432452570F27509B2
:100C90000185270A85280BAE0AAF0BAB07AA06EA27
:100CA0003395E0F9F87F907ED07D037C001210210F
:100CB0008E0C8F0D75121430B35D30A05AC292E4C1
:100CC000F521F522C3E522950DE50C6480F8E521B8
:100CD000648098500A0522E52270E9052180E5D25A
:100CE00092E4F523F524C3E524950DE50C6480F822
:100CF000E523648098500A0524E52470E9052380E3
:100D0000E5C3E50B952AE5296480F8E50A64809837
:0D0D100040A5E4F50980A0E4F514020839BF
:03002300021120A7
:10112000309805C298859908309904C299C2013255
:10110E002001FDEF30D004D29B8002C29BD201F5AC
:02111E00992214
:1010C0008B2B8A2C892DAB2BAA2CA92D120D1D60E0
:1010D00013052DE52D7002052C14F9120D1DFF12BC
:0510E000110E80E22268
:1010FA00AE071FEE600DE4FCFD0DED70010C4C60B7
:03110A00EF80F67D
:01110D0022BF
:100D1D00BB010689828A83E0225002E722BBFE02D4
:090D2D00E32289828A83E4932207
:100D3600BC000BBE0029EF8DF084FFADF022E4CCA1
:100D4600F875F008EF2FFFEE33FEEC33FCEE9DEC6A
:100D5600984005FCEE9DFE0FD5F0E9E4CEFD22EDB0
:100D6600F8F5F0EE8420D21CFEADF075F008EF2FFA
:100D7600FFED33FD4007985006D5F0F222C398FDEB
:050D86000FD5F0EA2288
:10102100C2D5E830E70FB2D5E4C39BFBE49AFAE4FA
:1010310099F9E498F8EC30E717B2D5121057120D70
:10104100C7E4C39BFBE49AFAE499F9E498F88003B6
:10105100120DC730D50DE4C39FFFE49EFEE49DFD54
:04106100E49CFC22ED
:100D8B0075F008758200EF2FFFEE33FECD33CDCC1F
:100D9B0033CCC58233C5829BED9AEC99E5829840A2
:100DAB000CF582EE9BFEED9AFDEC99FC0FD5F0D67F
:100DBB00E4CEFBE4CDFAE4CCF9A88222B800C1B9A9
:100DCB000059BA002DEC8BF084CFCECDFCE5F0CBE7
:100DDB00F97818EF2FFFEE33FEED33FDEC33FCEB20
:100DEB0033FB10D703994004EB99FB0FD8E5E4F9DB
:100DFB00FA227818EF2FFFEE33FEED33FDEC33FCC8
:100E0B00C933C910D7059BE99A4007EC9BFCE99ABB
:100E1B00F90FD8E0E4C9FAE4CCFB2275F010EF2F00
:100E2B00FFEE33FEED33FDCC33CCC833C810D70700
:100E3B009BEC9AE899400AED9BFDEC9AFCE899F83B
:0E0E4B000FD5F0DAE4CDFBE4CCFAE4C8F922CE
:00000001FF
