:030000000210DF0C
:0C10DF00787FE4F6D8FD75812D02080032
:10101B0048414E424F4E4420446576696174696F76
:10102B006E20636F7272656374696F6E206665659F
:10103B0064696E67206D616368696E6520563A312D
:06104B002E30200D0A000A
:10107600BF0107D294C295C2CC22BF0207C294D246
:0E10860095C2CC22BF0306C294C295D2CC22E2
:0910EB007BFF7A10791B02105101
:100F1200E4F594F593F592F591F596F595F5B2F51C
:100F2200B1F5B4F5B3F5CAF5C9F5CCF5CBF5E2F5F3
:100F3200E1E5A2543FF5A27598DA75D7E075D6FEC1
:100F4200758E14438E01D2ACD2AF5391FE439201FF
:100F52005391FD4392025391FB4392045391F74301
:100F620092085391EF4392105391DF43922053958D
:100F7200BF43964053957F4396805395DF43962017
:100F820053C9EF43CA1053C9DF43CA205396EF43F4
:100F920095105396F743950853B2F743B10853B2ED
:100FA200EF43B11053B2DF43B12053B2BF43B1405C
:100FB2005396FB4395045396FD4395025396FE4385
:100FC200950153B27F43B180D2A5D2A6D2A7D290C7
:050FD200D291C20122D2
:10109400758E7F7589F0758CFC758A66C28DD2AFAA
:0510A400D2A9D28C224C
:03000B00020E4C96
:100E4C00C0E0C0F0C083C082C0D075D000C000C06C
:100E5C0001C002C003C004C005C006C0070514E5EC
:100E6C001470020513AE13FF7C017DF4120D29EDF5
:100E7C004C7002B2A520B50620B30320A204C29187
:100E8C008002D291E509B40124E511250BF50BE4A0
:100E9C00350AF50AAF0BAB07FA3395E0F9F87F90FA
:100EAC007ED07D037C00120FD78E0C8F0D30B614C4
:100EBC0030A204C2A68002D2A630A104C2A780111F
:100ECC00D2A7800D30A106D2A6C2A78004D2A6D28A
:100EDC00A730B406C2907F02800ED29030B50320AA
:100EEC00B3047F0180027F03121076D007D006D0A6
:100EFC0005D004D003D002D001D000D0D0D082D005
:060F0C0083D0F0D0E032BA
:10080000E4F509121094120F121210EBD2CD7F01F1
:100810001210A9C2CD7F011210A9D2CD7F011210F2
:10082000A9C2CD7F051210A97527037528E875297F
:100830001B752A5820A203020BC220B603020A59D4
:1008400020A4030209A930A3030208F3D293E4F51C
:1008500025F5260526E52670020525643245257016
:10086000F275090185270A85280BAE0AAF0BAB0785
:10087000AA06EA3395E0F9F87F907ED07D037C00EC
:10088000120FD78E0C8F0D75112830B5A730B3A479
:1008900020A3A130A49E30A29BC292E4F521F522B0
:1008A000C3E522950DE50C6480F8E521648098503D
:1008B0000A0522E52270E9052180E5D292E4F523BC
:1008C000F524C3E524950DE50C6480F8E5236480E8
:1008D00098500A0524E52470E9052380E5C3E50B5B
:1008E000952AE5296480F8E50A648098409CE4F53F
:1008F000098097C293E4F525F5260526E5267002C2
:1009000005256432452570F275090185270A852879
:100910000BAE0AAF0BAB07AA06EA3395E0F9F87FF6
:10092000907ED07D037C00120FD78E0C8F0D751139
:100930002820B50302083420B30302083420A3039F
:1009400002083420A40302083420A203020834C29F
:1009500092E4F521F522C3E522950DE50C6480F8BB
:10096000E521648098500A0522E52270E90521807E
:10097000E5D292E4F523F524C3E524950DE50C6456
:1009800080F8E523648098500A0524E52470E90581
:100990002380E5C3E50B952AE5296480F8E50A6420
:1009A0008098408DE4F5098088C293E4F525F5260A
:1009B0000526E526700205256432452570F2750985
:1009C0000185270A85280BAE0AAF0BAB07AA06EAFA
:1009D0003395E0F9F87F907ED07D037C00120FD72D
:1009E0008E0C8F0D75112820B50302083420B30337
:1009F00002083430A40302083420A203020834C2DF
:100A000092E4F521F522C3E522950DE50C6480F80A
:100A1000E521648098500A0522E52270E9052180CD
:100A2000E5D292E4F523F524C3E524950DE50C64A5
:100A300080F8E523648098500A0524E52470E905D0
:100A40002380E5C3E50B952AE5296480F8E50A646F
:100A500080984093E4F509808E30A403020B06C20F
:100A600093E4F525F5260526E52670020525643272
:100A7000452570F275090185270A85280BAE0AAF56
:100A80000BAB07AA06EA3395E0F9F87F907ED07D9C
:100A9000037C00120FD78E0C8F0D75112830B566B0
:100AA00030B36330A36020A45D30A25AC292E4F553
:100AB00021F522C3E522950DE50C6480F8E521645B
:100AC0008098500A0522E52270E9052180E5D2923E
:100AD000E4F523F524C3E524950DE50C6480F8E5E1
:100AE00023648098500A0524E52470E9052380E5F5
:100AF000C3E50B952AE5296480F8E50A64809840EF
:100B00009CE4F509809730A303020834D293E4F5FE
:100B100025F5260526E52670020525643245257053
:100B2000F275090185270A85280BAE0AAF0BAB07C2
:100B3000AA06EA3395E0F9F87F907ED07D037C0029
:100B4000120FD78E0C8F0D75112820B503020834B3
:100B500020B30302083430A30302083420A40302A4
:100B6000083420A203020834C292E4F521F522C31E
:100B7000E522950DE50C6480F8E521648098500A23
:100B80000522E52270E9052180E5D292E4F523F5FE
:100B900024C3E524950DE50C6480F8E52364809872
:100BA000500A0524E52470E9052380E5C3E50B958B
:100BB0002AE5296480F8E50A648098408DE4F50907
:100BC000808820B703020C66C293E4F525F526055C
:100BD00026E526700205256432452570F275090167
:100BE00085270A85280BAE0AAF0BAB07AA06EA33A6
:100BF00095E0F9F87F907ED07D037C00120FD78EB0
:100C00000C8F0D75111430B55D30B75AC292E4F5F2
:100C100021F522C3E522950DE50C6480F8E52164F9
:100C20008098500A0522E52270E9052180E5D292DC
:100C3000E4F523F524C3E524950DE50C6480F8E57F
:100C400023648098500A0524E52470E9052380E593
:100C5000C3E50B952AE5296480F8E50A648098408D
:100C6000A5E4F50980A020A003020834D293E4F59E
:100C700025F5260526E526700205256432452570F2
:100C8000F275090185270A85280BAE0AAF0BAB0761
:100C9000AA06EA3395E0F9F87F907ED07D037C00C8
:100CA000120FD78E0C8F0D75111420B30302083468
:100CB00020A003020834C292E4F521F522C3E52204
:100CC000950DE50C6480F8E521648098500A0522B2
:100CD000E52270E9052180E5D292E4F523F524C3ED
:100CE000E524950DE50C6480F8E523648098500AAE
:100CF0000524E52470E9052380E5C3E50B952AE585
:100D0000296480F8E50A648098409FE4F509809A98
:030023000210CFF9
:1010CF00309805C298859908309904C299C20132A7
:1010BD002001FDEF30D004D29B8002C29BD201F5FE
:0210CD00992266
:101051008B2B8A2C892DAB2BAA2CA92D120D10605C
:1010610013052DE52D7002052C14F9120D10FF1238
:0510710010BD80E22229
:1010A900AE071FEE600DE4FCFD0DED70010C4C6008
:0310B900EF80F6CF
:0110BC002211
:100D1000BB010689828A83E0225002E722BBFE02E1
:090D2000E32289828A83E4932214
:100D2900BC000BBE0029EF8DF084FFADF022E4CCAE
:100D3900F875F008EF2FFFEE33FEEC33FCEE9DEC77
:100D4900984005FCEE9DFE0FD5F0E9E4CEFD22EDBD
:100D5900F8F5F0EE8420D21CFEADF075F008EF2F07
:100D6900FFED33FD4007985006D5F0F222C398FDF8
:050D79000FD5F0EA2295
:100FD700C2D5E830E70FB2D5E4C39BFBE49AFAE445
:100FE70099F9E498F8EC30E717B2D512100D120D05
:100FF700BAE4C39BFBE49AFAE499F9E498F880030E
:10100700120DBA30D50DE4C39FFFE49EFEE49DFDAB
:04101700E49CFC2237
:100D7E0075F008758200EF2FFFEE33FECD33CDCC2C
:100D8E0033CCC58233C5829BED9AEC99E5829840AF
:100D9E000CF582EE9BFEED9AFDEC99FC0FD5F0D68C
:100DAE00E4CEFBE4CDFAE4CCF9A88222B800C1B9B6
:100DBE000059BA002DEC8BF084CFCECDFCE5F0CBF4
:100DCE00F97818EF2FFFEE33FEED33FDEC33FCEB2D
:100DDE0033FB10D703994004EB99FB0FD8E5E4F9E8
:100DEE00FA227818EF2FFFEE33FEED33FDEC33FCD5
:100DFE00C933C910D7059BE99A4007EC9BFCE99AC9
:100E0E00F90FD8E0E4C9FAE4CCFB2275F010EF2F0D
:100E1E00FFEE33FEED33FDCC33CCC833C810D7070D
:100E2E009BEC9AE899400AED9BFDEC9AFCE899F848
:0E0E3E000FD5F0DAE4CDFBE4CCFAE4C8F922DB
:00000001FF
