:03000000020003F8
:0C000300787FE4F6D8FD758163020428C4
:10046200E4F594F593F592F591F596F595F5B2F5D7
:10047200B1F5B4F5B3F5CAF5C9F5CCF5CBF5E2F5AE
:02048200E12275
:1002E800E4F508F50CF50BF50AF509781AF6087621
:1002F8002308761808F67F06781E74FFF608DFFCD8
:1003080078247602E4FF74252FF8A6070FBF10F6AD
:100318001203CAE4781BF6781BE6702C7F407E0D2A
:100328007D03FCAB0CAA0BA90AA809C312025F50F3
:1003380017E50C2401F50CE4350BF50BE4350AF54B
:100348000AE43509F50980CF781BE6B42305781D42
:05035800E6F508AF0806
:01035D00227D
:10035E00E4F515F519F518F517F516781AF6087669
:10036E002208760808F67F06781E74FFF608DFFC72
:10037E007F06782476021203CAE4781BF6781BE611
:10038E00702C7F407E0D7D03FCAB19AA18A917A80F
:10039E0016C312025F5017E5192401F519E435183A
:1003AE00F518E43517F517E43516F51680CF781BDA
:0B03BE00E6B42205781DE6F515AF152A
:0103C9002211
:10042800120462750C407F807E257D007C001202DC
:1004380070781CE6B408FAC291E4F50C7F807E253A
:10044800FDFC1202701202E8E4781CF6750C407F7D
:0A045800807E25FDFC12027080D7A3
:1003CA00D295C2ACC29CC2997599203099FDC29946
:1003DA00781CE62405FF2418F8E4F674192FF87639
:1003EA0003E4FEEEC39F502D741A2EF8E6FDF5992C
:1003FA00EF24FEFCEEC39C500774182FF8ED66F646
:10040A00EF24FDB5060774182FF8E6F4F63099FDC7
:0D041A00C2990E80CED29CD2ACC2957F005C
:0104270022B2
:100270008F0B8E0A8D098C08C28E538EFE438E40E2
:100280005389BF5389CFAB0BAA0AA909A8087F00DD
:100290007E307D2A7C001201CDC3E49FFFE49EFEE8
:1002A00074019DFDE49CFCE4FB7A01F9F81201CD98
:1002B0008F8DAB0BAA0AA909A8087F007E307D2A82
:1002C0007C001201CDC3E49FFF8F8BC2AB538FFD27
:1002D000D28EE598543F4440F598D2ACD29C53A2BC
:0802E0003FE50C42A2D2AF225F
:03002300020026B2
:10002600C0E0C0F0C083C082C0D075D000C000C0A0
:0D00360001C002C003C004C005C006C00721
:10004300751000750F00750E00750D0075130075A2
:100053001405C2A5C2ACC298E59964206005D2AC70
:10006300020176751200E512C39514400302011ACA
:1000730020982D7F407E0D7D037C00AB10AA0FA935
:100083000EA80DC312025F5017E5102401F510E40A
:10009300350FF50FE4350EF50EE4350DF50D80D073
:1000A3007F3B7E0D7D037C00AB10AA0FA90EA80D2C
:1000B300D312025F4024751000750F00750E007592
:1000C3000D00C298751100741A2511F876000511F8
:1000D300E511B440F2D2AC020176309835C298757E
:1000E3001000750F00750E00750D00741A2512F8B7
:1000F300A699E512B40208241AF8E62514F514E5C6
:100103001424FEFFE512C39F5008741A2512F8E663
:1001130062130512020069E5126514703F74182515
:1001230014F8E6F465136015751100741A2511F8B7
:1001330076000511E511B440F2D2AC80367419256E
:1001430014F8E66403602A751100741A2511F87611
:10015300000511E511B440F2D2AC8017751100749B
:100163001A2511F876000511E511B440F2D2AC80DE
:0301730002D2AC09
:10017600D007D006D005D004D003D002D001D000DD
:0B018600D0D0D082D083D0F0D0E03287
:1001910075F008758200EF2FFFEE33FECD33CDCC25
:1001A10033CCC58233C5829BED9AEC99E5829840A8
:1001B1000CF582EE9BFEED9AFDEC99FC0FD5F0D685
:1001C100E4CEFBE4CDFAE4CCF9A88222B800C1B9AF
:1001D1000059BA002DEC8BF084CFCECDFCE5F0CBED
:1001E100F97818EF2FFFEE33FEED33FDEC33FCEB26
:1001F10033FB10D703994004EB99FB0FD8E5E4F9E1
:10020100FA227818EF2FFFEE33FEED33FDEC33FCCD
:10021100C933C910D7059BE99A4007EC9BFCE99AC1
:10022100F90FD8E0E4C9FAE4CCFB2275F010EF2F06
:10023100FFEE33FEED33FDCC33CCC833C810D70706
:100241009BEC9AE899400AED9BFDEC9AFCE899F841
:0E0251000FD5F0DAE4CDFBE4CCFAE4C8F922D4
:10025F00EB9FF5F0EA9E42F0E99D42F0E89C45F0F5
:01026F00226C
:00000001FF
