:030000000209FEF4
:0C09FE00787FE4F6D8FD75812E020026FB
:1008FA0048414E424F4E4420446576696174696F9F
:10090A006E20636F7272656374696F6E20666565C7
:10091A0064696E67206D616368696E6520563A3155
:06092A002E30200D0A0032
:10093000BF0107D294C295C2CC22BF0204C29480E8
:100940000FBF0307C294C295D2CC22BF0406D29433
:05095000D295C2CC228B
:090A0A007BFF7A0879FA02095514
:1007F100E4F594F593F592F591F596F595F5B2F545
:10080100B1F5B4F5B3F5CAF5C9F5CCF5CBF5E2F51B
:10081100E1E5A2543FF5A27598DA75D7E075D6FEE9
:10082100758E14438E01D2ACD2AF5391FE43920127
:100831005391FD4392025391FB4392045391F74329
:1008410092085391EF4392105391DF4392205395B5
:10085100BF43964053957F4396805395DF4396203F
:1008610053C9EF43CA1053C9DF43CA205396EF431C
:1008710095105396F743950853B2F743B10853B215
:10088100EF43B11053B2DF43B12053B2BF43B14084
:100891005396FB4395045396FD4395025396FE43AD
:1008A100950153B27F43B180D2A5D2A6D2A7D290EF
:0508B100D291C20122FA
:10000E00758E7F7589F0758CFC758A66C28DD2AF40
:05001E00D2A9D28C22E2
:03000B0002057378
:10057300C0E0C0F0C083C082C0D075D000C000C04E
:1005830001C002C003C004C005C006C0070516E5CC
:100593001670020515AE15FF7C017DF41206CEED33
:1005A3004C7002B2A530B50630B30320A204C29149
:1005B3008002D291E509B40124E512250BF50BE481
:1005C300350AF50AAF0BAB07FA3395E0F9F87F90DC
:1005D3007ED07D037C001208B68E0C8F0D30A40BE9
:1005E30030A205751401800375140030B63430A2AF
:1005F3000CE50E7004C2A6800EC2A7800AE50E7039
:1006030004D2A68002D2A730A10CE50E7004C2A7C3
:100613008027C2A68023E50E7004D2A7801BD2A632
:10062300801730A110E50E7006D2A6C2A7800AC2B9
:10063300A6D2A78004D2A6D2A730B44230A209C260
:10064300907F021209308031E50E7016750E017F1E
:10065300031209307F01FE1209A77D057F017E0089
:100663008014750E007F041209307F017E00120989
:10067300A7E4FD7F01FE12099130B41B80FBD290E9
:1006830030B50320B3047F01800AE50E70047F04B4
:1006930080027F03120930D007D006D005D004D0E2
:1006A30003D002D001D000D0D0D082D083D0F0D0FC
:0206B300E03233
:10002600E4F50EF50912000E1207F1120A0A7F0115
:100036007E0012097A8F2BE52B7004F50E801FE5E2
:100046002BB40505750E018015E4F52B7F01FE1214
:1000560009A7AD2B7F017E00120991E4F50ED2CDE2
:100066007F011209BBC2CD7F011209BBD2CD7F0130
:100076001209BBC2CD7F051209BBE4F5147527032F
:100086007528E875291B752A5820A203020425E560
:10009600146401600302042520B6030202BC20A4F6
:1000A6000302020C30A303020156D293F525F5266E
:1000B6000526E526700205256432452570F2750988
:1000C6000185270A85280BAE0AAF0BAB07AA06EAFD
:1000D6003395E0F9F87F907ED07D037C001208B658
:1000E6008E0C8F0D75122830B59F30B39C20A399C6
:1000F60030A49630A293C292E4F521F522C3E522FC
:10010600950DE50C6480F8E521648098500A052277
:10011600E52270E9052180E5D292E4F523F524C3B2
:10012600E524950DE50C6480F8E523648098500A73
:100136000524E52470E9052380E5C3E50B952AE54A
:10014600296480F8E50A648098409CE4F509809764
:10015600C293E4F525F5260526E5267002052564F5
:1001660032452570F275090185270A85280BAE0AE6
:10017600AF0BAB07AA06EA3395E0F9F87F907ED07D
:100186007D037C001208B68E0C8F0D75122820B5E3
:100196000302008F20B30302008F20A30302008F07
:1001A60020A40302008F20A20302008FC292E4F56E
:1001B60021F522C3E522950DE50C6480F8E521645E
:1001C6008098500A0522E52270E9052180E5D29241
:1001D600E4F523F524C3E524950DE50C6480F8E5E4
:1001E60023648098500A0524E52470E9052380E5F8
:1001F600C3E50B952AE5296480F8E50A64809840F2
:100206008DE4F5098088C293E4F525F5260526E5F3
:1002160026700205256432452570F2750901852789
:100226000A85280BAE0AAF0BAB07AA06EA3395E0A0
:10023600F9F87F907ED07D037C001208B68E0C8F75
:100246000D75122820B50302008F20B30302008F1C
:1002560030A40302008F20A20302008FC292E4F5AD
:1002660021F522C3E522950DE50C6480F8E52164AD
:100276008098500A0522E52270E9052180E5D29290
:10028600E4F523F524C3E524950DE50C6480F8E533
:1002960023648098500A0524E52470E9052380E547
:1002A600C3E50B952AE5296480F8E50A6480984041
:1002B60093E4F509808E30A403020369C293E4F542
:1002C60025F5260526E526700205256432452570A6
:1002D600F275090185270A85280BAE0AAF0BAB0715
:1002E600AA06EA3395E0F9F87F907ED07D037C007C
:1002F6001208B68E0C8F0D75122830B56630B363B2
:1003060030A36020A45D30A25AC292E4F521F52202
:10031600C3E522950DE50C6480F8E52164809850CC
:100326000A0522E52270E9052180E5D292E4F5234B
:10033600F524C3E524950DE50C6480F8E523648077
:1003460098500A0524E52470E9052380E5C3E50BEA
:10035600952AE5296480F8E50A648098409CE4F5CE
:1003660009809730A30302008FD293E4F525F52682
:100376000526E526700205256432452570F27509C5
:100386000185270A85280BAE0AAF0BAB07AA06EA3A
:100396003395E0F9F87F907ED07D037C001208B695
:1003A6008E0C8F0D75122820B50302008F20B30323
:1003B60002008F30A30302008F20A40302008F20C7
:1003C600A20302008FC292E4F521F522C3E522952D
:1003D6000DE50C6480F8E521648098500A0522E555
:1003E6002270E9052180E5D292E4F523F524C3E5E0
:1003F60024950DE50C6480F8E523648098500A0581
:1004060024E52470E9052380E5C3E50B952AE52953
:100416006480F8E50A648098408DE4F509808820B8
:10042600B7030204C9C293E4F525F5260526E52699
:10043600700205256432452570F275090185270A83
:1004460085280BAE0AAF0BAB07AA06EA3395E0F98F
:10045600F87F907ED07D037C001208B68E0C8F0D3F
:1004660075121430B55D30B75AC292E4F521F52203
:10047600C3E522950DE50C6480F8E521648098506B
:100486000A0522E52270E9052180E5D292E4F523EA
:10049600F524C3E524950DE50C6480F8E523648016
:1004A60098500A0524E52470E9052380E5C3E50B89
:1004B600952AE5296480F8E50A64809840A5E4F564
:1004C6000980A020A00302056DD293E4F525F52648
:1004D6000526E526700205256432452570F2750964
:1004E6000185270A85280BAE0AAF0BAB07AA06EAD9
:1004F6003395E0F9F87F907ED07D037C001208B634
:100506008E0C8F0D75121430B35D30A05AC292E472
:10051600F521F522C3E522950DE50C6480F8E52169
:10052600648098500A0522E52270E9052180E5D20B
:1005360092E4F523F524C3E524950DE50C6480F8D3
:10054600E523648098500A0524E52470E905238094
:10055600E5C3E50B952AE5296480F8E50A648098E9
:0D05660040A5E4F50980A0E4F51402008F23
:030023000209E1EE
:1009E100309805C298859908309904C299C201329C
:1009CF002001FDEF30D004D29B8002C29BD201F5F3
:0209DF0099225B
:100955008B2C8A2D892EAB2CAA2DA92E1206B560BB
:1009650013052EE52E7002052D14F91206B5FF129A
:0509750009CF80E22221
:0D09F100E4F5C7F5C5F5C675C380F5C42251
:10097A0075C78275C5018FC48EC375C65A75C6A55B
:06098A0000AFC21209F1EA
:010990002244
:1009910075C78275C5028FC48EC38DC275C65A755F
:0609A100C6A5000209F1E9
:1009A70075C78275C5038FC48EC375C65A75C6A52C
:0409B700000209F140
:1009BB00AE071FEE600DE4FCFD0DED70010C4C60FD
:0309CB00EF80F6C4
:0109CE002206
:1006B500BB010689828A83E0225002E722BBFE0243
:0906C500E32289828A83E4932276
:1006CE00BC000BBE0029EF8DF084FFADF022E4CC10
:1006DE00F875F008EF2FFFEE33FEEC33FCEE9DECD9
:1006EE00984005FCEE9DFE0FD5F0E9E4CEFD22ED1F
:1006FE00F8F5F0EE8420D21CFEADF075F008EF2F69
:10070E00FFED33FD4007985006D5F0F222C398FD59
:05071E000FD5F0EA22F6
:1008B600C2D5E830E70FB2D5E4C39BFBE49AFAE46D
:1008C60099F9E498F8EC30E717B2D51208EC12075C
:1008D6005FE4C39BFBE49AFAE499F9E498F8800391
:1008E60012075F30D50DE4C39FFFE49EFEE49DFD35
:0408F600E49CFC2260
:1007230075F008758200EF2FFFEE33FECD33CDCC8D
:1007330033CCC58233C5829BED9AEC99E582984010
:100743000CF582EE9BFEED9AFDEC99FC0FD5F0D6ED
:10075300E4CEFBE4CDFAE4CCF9A88222B800C1B917
:100763000059BA002DEC8BF084CFCECDFCE5F0CB55
:10077300F97818EF2FFFEE33FEED33FDEC33FCEB8E
:1007830033FB10D703994004EB99FB0FD8E5E4F949
:10079300FA227818EF2FFFEE33FEED33FDEC33FC36
:1007A300C933C910D7059BE99A4007EC9BFCE99A2A
:1007B300F90FD8E0E4C9FAE4CCFB2275F010EF2F6F
:1007C300FFEE33FEED33FDCC33CCC833C810D7076F
:1007D3009BEC9AE899400AED9BFDEC9AFCE899F8AA
:0E07E3000FD5F0DAE4CDFBE4CCFAE4C8F9223D
:00000001FF
