:03000000021043A8
:0C104300787FE4F6D8FD75812D020800CE
:100F9D0048414E424F4E4420446576696174696FF5
:100FAD006E20636F7272656374696F6E206665651E
:100FBD0064696E67206D616368696E6520563A31AC
:060FCD002E30200D0A0089
:09104F007BFF7A0F799D020FD39B
:100DF700E4F594F593F592F591F596F595F5B2F539
:100E0700B1F5B4F5B3F5CAF5C9F5CCF5CBF5E2F50F
:100E1700E1E5A2543FF5A27598DA75D7E075D6FEDD
:100E2700758E14438E01D2ACD2AF5391FE4392011B
:100E37005391FD4392025391FB4392045391F7431D
:100E470092085391EF4392105391DF4392205395A9
:100E5700BF43964053957F4396805395DF43962033
:100E670053C9EF43CA1053C9DF43CA205396EF4310
:100E770095105396F743950853B2F743B10853B209
:100E8700EF43B11053B2DF43B12053B2BF43B14078
:100E97005396FB4395045396FD4395025396FE43A1
:100EA700950153B27F43B180D2A5D2A6D2A7D290E3
:050EB700D291C20122EE
:100FF800758E7F7589F0758CFC758A66C28DD2AF47
:05100800D2A9D28C22E8
:03000B00020EBC26
:100EBC00C0E0C0F0C083C082C0D075D000C000C0FC
:100ECC0001C002C003C004C005C006C0070514E57C
:100EDC001470020513B4F40DE513B40108B2A57532
:100EEC001300751400E509B40124E511250BF50B6D
:100EFC00E4350AF50AAF0BAB07FA3395E0F9F87F46
:100F0C00907ED07D037C00120F598E0C8F0D30B665
:100F1C001430A204C2A68002D2A630A104C2A780BB
:100F2C0011D2A7800D30A106D2A6C2A78004D2A6EA
:100F3C00D2A7D007D006D005D004D003D002D00160
:0D0F4C00D000D0D0D082D083D0F0D0E032E1
:10080000E4F509120FF8120DF712104FD2CD7F0147
:1008100012100DC2CD7F0112100DD2CD7F0112102A
:100820000DC2CD7F0512100D7527017528F47529AD
:100830000B752AB820A203020BC230B603020A5974
:1008400020A4030209A930A3030208F3D293E4F51C
:1008500025F5260526E52670020525643245257016
:10086000F275090185270A85280BAE0AAF0BAB0785
:10087000AA06EA3395E0F9F87F907ED07D037C00EC
:10088000120F598E0C8F0D75111430B5A730B3A40B
:1008900020A3A120A49E30A29BC292E4F521F522C0
:1008A000C3E522950DE50C6480F8E521648098503D
:1008B0000A0522E52270E9052180E5D292E4F523BC
:1008C000F524C3E524950DE50C6480F8E5236480E8
:1008D00098500A0524E52470E9052380E5C3E50B5B
:1008E000952AE5296480F8E50A648098409CE4F53F
:1008F000098097C293E4F525F5260526E5267002C2
:1009000005256432452570F275090185270A852879
:100910000BAE0AAF0BAB07AA06EA3395E0F9F87FF6
:10092000907ED07D037C00120F598E0C8F0D7511B7
:100930001420B50302083420B30302083420A303B3
:1009400002083420A40302083420A203020834C29F
:1009500092E4F521F522C3E522950DE50C6480F8BB
:10096000E521648098500A0522E52270E90521807E
:10097000E5D292E4F523F524C3E524950DE50C6456
:1009800080F8E523648098500A0524E52470E90581
:100990002380E5C3E50B952AE5296480F8E50A6420
:1009A0008098408DE4F5098088C293E4F525F5260A
:1009B0000526E526700205256432452570F2750985
:1009C0000185270A85280BAE0AAF0BAB07AA06EAFA
:1009D0003395E0F9F87F907ED07D037C00120F59AB
:1009E0008E0C8F0D75111420B50302083420B3034B
:1009F00002083430A40302083420A203020834C2DF
:100A000092E4F521F522C3E522950DE50C6480F80A
:100A1000E521648098500A0522E52270E9052180CD
:100A2000E5D292E4F523F524C3E524950DE50C64A5
:100A300080F8E523648098500A0524E52470E905D0
:100A40002380E5C3E50B952AE5296480F8E50A646F
:100A500080984093E4F509808E30A403020B06C20F
:100A600093E4F525F5260526E52670020525643272
:100A7000452570F275090185270A85280BAE0AAF56
:100A80000BAB07AA06EA3395E0F9F87F907ED07D9C
:100A9000037C00120F598E0C8F0D75111430B56642
:100AA00030B36330A36020A45D30A25AC292E4F553
:100AB00021F522C3E522950DE50C6480F8E521645B
:100AC0008098500A0522E52270E9052180E5D2923E
:100AD000E4F523F524C3E524950DE50C6480F8E5E1
:100AE00023648098500A0524E52470E9052380E5F5
:100AF000C3E50B952AE5296480F8E50A64809840EF
:100B00009CE4F509809730A303020834D293E4F5FE
:100B100025F5260526E52670020525643245257053
:100B2000F275090185270A85280BAE0AAF0BAB07C2
:100B3000AA06EA3395E0F9F87F907ED07D037C0029
:100B4000120F598E0C8F0D75111420B50302083445
:100B500020B30302083420A30302083420A40302B4
:100B6000083420A203020834C292E4F521F522C31E
:100B7000E522950DE50C6480F8E521648098500A23
:100B80000522E52270E9052180E5D292E4F523F5FE
:100B900024C3E524950DE50C6480F8E52364809872
:100BA000500A0524E52470E9052380E5C3E50B958B
:100BB0002AE5296480F8E50A648098408DE4F50907
:100BC000808820B703020C66C293E4F525F526055C
:100BD00026E526700205256432452570F275090167
:100BE00085270A85280BAE0AAF0BAB07AA06EA33A6
:100BF00095E0F9F87F907ED07D037C00120F598E2E
:100C00000C8F0D75111430B55D30B75AC292E4F5F2
:100C100021F522C3E522950DE50C6480F8E52164F9
:100C20008098500A0522E52270E9052180E5D292DC
:100C3000E4F523F524C3E524950DE50C6480F8E57F
:100C400023648098500A0524E52470E9052380E593
:100C5000C3E50B952AE5296480F8E50A648098408D
:100C6000A5E4F50980A020A003020834D293E4F59E
:100C700025F5260526E526700205256432452570F2
:100C8000F275090185270A85280BAE0AAF0BAB0761
:100C9000AA06EA3395E0F9F87F907ED07D037C00C8
:100CA000120F598E0C8F0D75111420B303020834E6
:100CB00020A003020834C292E4F521F522C3E52204
:100CC000950DE50C6480F8E521648098500A0522B2
:100CD000E52270E9052180E5D292E4F523F524C3ED
:100CE000E524950DE50C6480F8E523648098500AAE
:100CF0000524E52470E9052380E5C3E50B952AE585
:100D0000296480F8E50A648098409FE4F509809A98
:0300230002103395
:10103300309805C298859908309904C299C2013243
:101021002001FDEF30D004D29B8002C29BD201F59A
:02103100992202
:100FD3008B2B8A2C892DAB2BAA2CA92D120D1060DB
:100FE30013052DE52D7002052C14F9120D10FF12B7
:050FF300102180E22244
:10100D00AE071FEE600DE4FCFD0DED70010C4C60A4
:03101D00EF80F66B
:0110200022AD
:100D1000BB010689828A83E0225002E722BBFE02E1
:090D2000E32289828A83E4932214
:100F5900C2D5E830E70FB2D5E4C39BFBE49AFAE4C3
:100F690099F9E498F8EC30E717B2D5120F8F120D02
:100F790065E4C39BFBE49AFAE499F9E498F88003E1
:100F8900120D6530D50DE4C39FFFE49EFEE49DFD7F
:040F9900E49CFC22B6
:100D290075F008758200EF2FFFEE33FECD33CDCC81
:100D390033CCC58233C5829BED9AEC99E582984004
:100D49000CF582EE9BFEED9AFDEC99FC0FD5F0D6E1
:100D5900E4CEFBE4CDFAE4CCF9A88222B800C1B90B
:100D69000059BA002DEC8BF084CFCECDFCE5F0CB49
:100D7900F97818EF2FFFEE33FEED33FDEC33FCEB82
:100D890033FB10D703994004EB99FB0FD8E5E4F93D
:100D9900FA227818EF2FFFEE33FEED33FDEC33FC2A
:100DA900C933C910D7059BE99A4007EC9BFCE99A1E
:100DB900F90FD8E0E4C9FAE4CCFB2275F010EF2F63
:100DC900FFEE33FEED33FDCC33CCC833C810D70763
:100DD9009BEC9AE899400AED9BFDEC9AFCE899F89E
:0E0DE9000FD5F0DAE4CDFBE4CCFAE4C8F92231
:00000001FF
